:060000000A128A110C280F
:10000800FE00030EF0000A08F1000A128A11EB281C
:100018000A128A110F2883010A128A11A828762841
:10002800831603170814831603130514A7288316C9
:1000380003178814831603138514A7288316031738
:100048000815831603130515A728831603178815A3
:10005800831603138515A728831603170816831616
:1000680003138516A7288316031788168316031308
:100078000914A7288316031708178316031389146E
:10008800A728831603178817831603130915A728AB
:10009800831603170914831603130615A728831656
:1000A80003178914831603138615A72883160317C5
:1000B8000915831603138614A728831603178915B1
:1000C800831603130616A728831603170916831623
:1000D80003130614A7288316031789168316031318
:1000E8008616A7287308003A03197B28A7287208E0
:1000F800003A03191428013A03191B28033A031973
:100108002228013A03192928073A03193028013A05
:1001180003193728033A03193E28013A03194528D9
:100128000F3A03194C28013A03195328033A0319C3
:100138005A28013A03196128073A03196828013A2D
:1001480003196F28A7280800831603138701831251
:1001580003138701F5010A128A11CA200A128A11AB
:100168000030F200F3000A128A1113200A128A11D1
:100178002130F400F40BBE2875080A128A11FA20FF
:100188000A128A11BC280A128A110C28C0308B0066
:10019800831603139F131F129F1240308C0083167F
:1001A800031788018901831203131F083F39403858
:1001B8009F00C3309F052130F200F20BE128831223
:1001C80003131F142130F200F20BE82808000A126A
:1001D8008A1108210A128A118312031387007108F1
:1001E8008A00700E8300FE0E7E0E0900F30073086D
:1001F800F200F20DF20D831203131F087206C339C1
:1002080072069F009F140800831203130C1F0D2908
:0A0218000E290F290C131E08080020
:08400000FF3FFF3FFF3FFF3FC0
:04400E00D420FF3F7C
:00000001FF
