:060000000A128A110C280F
:10000800FE00030EF1000A08F2000A128A11012A02
:100018000A128A110F28F801F901FA018312031351
:10002800A701A801A901AA01AB0183010A128A113B
:10003800B22880288316031708148316031305149F
:10004800B128831603178814831603138514B1285F
:10005800831603170815831603130515B12883168D
:1000680003178815831603138515B12883160317FC
:100078000816831603138516B128831603178816E6
:10008800831603130914B128831603170817831658
:1000980003138914B12883160317881783160313CB
:1000A8000915B128831603170914831603130615B7
:1000B800B128831603178914831603138615B128EC
:1000C800831603170915831603138614B12883169C
:1000D80003178915831603130616B1288316031709
:1000E8000916831603130614B128831603178916F5
:1000F800831603138616B1287408003A0319852855
:10010800B1287308003A03191E28013A0319252853
:10011800033A03192C28013A03193328073A03191B
:100128003A28013A03194128033A03194828013AA1
:1001380003194F280F3A03195628013A03195D2865
:10014800033A03196428013A03196B28073A03197B
:100158007228013A03197928B1280800F80180307B
:10016800831603138100831203138101E8308B0087
:1001780089018316031389018312031387018316E8
:1001880003138701033086008312031386010330AB
:100198008316031396008801831203138801AC01A8
:1001A800AC0A831603138513831203138513A60160
:1001B80000300A128A1143220A128A110030F30011
:1001C800F4000A128A111D200A128A1120308312A3
:1001D8000313A400A40BEE280000831203132608BF
:1001E8000A128A116D220A128A11FA007A080A1272
:1001F8008A11A4210A128A1183120313AB007A0808
:100208000F39A9001030F3000030F4007A08A40078
:10021800A5012408F5002508F6000A128A113B21D9
:100228000A128A11730883120313A80029080A12F4
:100238008A11A4210A128A11F900831203132808CB
:100248000A128A11A4210A128A1183120313AA001E
:100258007A08780203183129322934298517352973
:10026800851378088800EA280A128A110C28831254
:100278000313A101F41F412942294929F309F4096B
:10028800F30A0319F40AA101A10AF61F4C294D2902
:100298005629F509F609F50A0319F60A0130F70097
:1002A8007708A106A201A3017308740403195D2944
:1002B8005E299529A001A00A6C2901300310F30DCD
:1002C800F40DFF3E031D62290130F7007708A007EF
:1002D800F41F6F297029612901300310A20DA30DA5
:1002E800FF3E031D712974087602031D7D297308DA
:1002F8007502031C8029812988297308F50274086E
:10030800031CF603F602221401300310F40CF30C5C
:10031800FF3E031D89290130A002031D9429952958
:1003280070292108031999299A299F29A209A30943
:10033800A20A0319A30A2308F4002208F3000800FC
:10034800F500C6293F30002A0630002A5B30002A13
:100358004F30002A6630002A6D30002A7D30002A8E
:100368000730002A7F30002A6F30002A7730002AB1
:100378007C30002A3930002A5E30002A7930002A81
:100388007130002A7508F300F4017408003A031963
:10039800CE29002A7308003A0319A629013A03193D
:1003A800A829033A0319AA29013A0319AC29073ADB
:1003B8000319AE29013A0319B029033A0319B229DE
:1003C800013A0319B4290F3A0319B629013A031956
:1003D800B829033A0319BA29013A0319BC29073A7B
:1003E8000319BE29013A0319C029033A0319C2297E
:1003F800013A0319C429002A08000B1C042A052AFB
:10040800172A8312031306180A2A0B2A0F2A013007
:10041800F0007008F8078618122A132A152A0130E6
:10042800F8020B103C2A831203132C08031D1D2A03
:100438001E2A2D2A89017908870001308900423057
:10044800F000F00B252A000083120313AC01AC0A5C
:100458003A2A89012A088700023089004230F000D0
:10046800F00B342A000083120313AC0181010B1135
:1004780072088A00710E8300FE0E7E0E0900F400D9
:100488007403031D482A492A4F2A8B170B17831612
:1004980003130C13522A831603130C139F131F12F2
:1004A8009F128316031788018901831203131F08FB
:1004B8003F3940389F00C3309F052130F300F30BCC
:1004C800632A831203131F142130F300F30B6A2AE3
:1004D8000800F60076080A128A117F220A128A1189
:1004E8001030F500F50B762A00000A128A118D22C9
:1004F8000A128A110800F4007408F300F30DF30DD2
:10050800831203131F087306C33973069F009F14D1
:100518000800831203130C1F922A932A942A0C139F
:040528001E080800A1
:08400000FF3FFF3FFF3FFF3FC0
:04400E00D420FF3F7C
:00000001FF
