:060000000A128A110C280F
:10000800FE00030EF1000A08F2000A128A113328D2
:100018000A128A110F28F30183010A128A1114287F
:10002800F30183160317880189010330831603132C
:100038008600831203138601831603138701831234
:100048000313870188308B00FF3083160313960053
:100058007308831287002C280A128A110C2883122D
:1000680003130618382839283D280130F000700895
:10007800F30786184028412843280130F3020B1063
:0E00880072088A00710E8300FE0E7E0E0900C3
:08400000FF3FFF3FFF3FFF3FC0
:04400E00D420FF3F7C
:00000001FF
